:020000040800F2
:100000001807002089010008EB130008FF12000800
:10001000E91300088F0200088D1700080000000097
:10002000000000000000000000000000EF130008C6
:100030009102000800000000ED130008F113000811
:10004000A3010008A3010008A3010008A301000800
:10005000A3010008A3010008A3010008A3010008F0
:10006000A3010008A3010008A3010008A3010008E0
:10007000A3010008A3010008A3010008A3010008D0
:10008000A3010008A3010008A3010008A3010008C0
:10009000A3010008A3010008A3010008A3010008B0
:1000A000A301000855140008A3010008A3010008DB
:1000B000A3010008A3010008A3010008A301000890
:1000C000A3010008A3010008A3010008A301000880
:1000D000A3010008A3010008A301000849170008B4
:1000E000A3010008A3010008A301000800F002F822
:1000F00000F03AF80AA090E8000C82448344AAF188
:100100000107DA4501D100F02FF8AFF2090EBAE885
:100110000F0013F0010F18BFFB1A43F0010318473B
:100120003017000050170000103A24BF78C878C17B
:10013000FAD8520724BF30C830C144BF04680C60ED
:10014000704700000023002400250026103A28BF35
:1001500078C1FBD8520728BF30C148BF0B60704739
:100160001FB51FBD10B510BD00F058F81146FFF7C0
:10017000F7FF01F01DFB00F076F803B4FFF7F2FF84
:1001800003BC00F07DF8000009488047094800479B
:10019000FEE7FEE7FEE7FEE7FEE7FEE7FEE7FEE737
:1001A000FEE7FEE704480549054A064B7047000094
:1001B00053140008ED000008180100201807002063
:1001C00018030020180300204FF0000200B513466A
:1001D00094469646203922BFA0E80C50A0E80C5067
:1001E000B1F12001BFF4F7AF090728BFA0E80C5018
:1001F00048BF0CC05DF804EB890028BF40F8042B11
:1002000008BF704748BF20F8022B11F0804F18BF7D
:1002100000F8012B7047704770477047754600F033
:100220002BF8AE4605006946534620F00700854688
:1002300018B020B5FFF7B6FFBDE820404FF000062C
:100240004FF000074FF000084FF0000B21F00701BE
:10025000AC46ACE8C009ACE8C009ACE8C009ACE801
:10026000C0098D46704710B50446AFF300802046A4
:10027000BDE81040FFF781BF00487047B400002080
:1002800001491820ABBEFEE7260002007047FEE7DA
:10029000704710B590F821100022022905D00421E2
:1002A000816380F82020012010BD01680B6823F0D5
:1002B0000E030B6001680B6823F001030B6090F8DC
:1002C0004030C46B012101FA03F3636080F8211010
:1002D00080F82020104610BD10B590F821100024A1
:1002E000022903D00421816301243DE001680A68EA
:1002F00022F00E020A6001680A6822F001020A6018
:100300001A4A0168914201D1012121E0174A1432B1
:10031000914201D110211BE0144A2832914201D1AF
:10032000891515E0114A3C32914201D189140FE040
:100330000E4A5032914202D14FF4803108E00B4A0C
:100340006432914202D14FF4801101E04FF080718C
:10035000064A083A5160012180F82110002180F8F6
:100360002010416B01B18847204610BD08000240B3
:100370002DE9F84FDFF8B8910024A9F1040B2346CA
:100380000F2709F1040AABF1040EC9E00125A540CD
:100390002A40AA427DD1674ED1F804C0ACEB0608D2
:1003A000B44532D014DCBCF1030F3AD009DCBCF107
:1003B000000F2AD0BCF1010F1CD0BCF1020F31D1CB
:1003C0001DE0BCF1110F17D0BCF1120F2AD119E0BA
:1003D000B8F5881F19D006DCB8F5803F15D0B8F500
:1003E000801F1FD111E0B8F5001F0ED0B8F5041F13
:1003F00018D10AE0CB6815E0CB681B1D12E0CB6872
:1004000008330FE0CB680C330CE08B682BB1012B69
:100410004FF0080303D0456104E0042302E00561C6
:1004200000E00023FF2A01D8064601E000F104069F
:100430004FEA840501D9A5F12005D6F8008007FA16
:1004400005FC28EA0C0803FA05F548EA0508C6F891
:1004500000804D68ED0062D5374DAE6946F001066B
:10046000AE61AD6924F0030605F001050095334D3A
:1004700006EB050CDCF80850A607360F07FA06F85D
:1004800025EA0805DFF8B880404503D14FF00008A1
:1004900017E044E0DFF8AC80404502D14FF001089E
:1004A0000FE0DFF8A480404502D14FF0020808E0D9
:1004B000DFF89880404502D14FF0030801E04FF08B
:1004C000040808FA06F848EA0508CCF808804D68E0
:1004D000D9F80060ED024D4601D5164300E0964381
:1004E0002E604D68DAF80060AD02554601D516431E
:1004F00000E096432E604D68DBF80060AD035D467A
:1005000001D5164300E096432E604D68DEF800608A
:10051000ED03754601D5164300E096432E60641C3A
:100520000D682A46E5407FF431AFBDE8F88F000042
:1005300008040140000011100010024000000140BA
:1005400000080140000C014000100140001401406F
:100550000AB1016170470904FBE7000001488068A7
:1005600070470000080000200248816802781144AA
:100570008160704708000020074810B5016841F00D
:1005800010010160032000F075F80F2000F006F85C
:1005900000F024F8002010BD0020024070B50D4D81
:1005A00004464FF47A712878B1FBF0F00A490968E3
:1005B000B1FBF0F000F0DCFA48B9102C07D20022B1
:1005C0002146501E00F036F800206C6070BD0120FE
:1005D00070BD000008000020140000200C4808B581
:1005E000816941F001018161816901F0010100919E
:1005F000C16941F08051C161C06900F08050009034
:100600000448416821F0E06141F00071416008BD9B
:100610000010024000000140002809DB00F01F022A
:10062000012191404009800000F1E020C0F8001154
:1006300070470000F0B40E4B1B680C46C3F3022356
:10064000C3F10705042D00D90425191D072901D27E
:10065000002300E0DB1E012606FA05F1491E2140B9
:1006600099409E40761E16403143F0BC01F08FB891
:100670000CED00E0064900F0070208684FF6FF03A2
:10068000184040EA0220034A104308607047000007
:100690000CED00E00000FA052DE9F0470F460500DB
:1006A00061D0434E306800F00700B84209D230688C
:1006B00020F0070038433060306800F00700B8428F
:1006C00051D128683B4C810712D5400703D560689B
:1006D00040F4E06060602878000703D5606840F46B
:1006E000605060606068A96820F0F00008436060B6
:1006F0002878C00728D06868012810D0216802280F
:1007000010D0890700292EDA616821F00301014326
:100710006160FFF723FF804641F288390DE02168D0
:100720008903EFE78901EDE7FFF718FFA0EB080168
:10073000494502D90320BDE8F0876068696800F088
:100740000C00B0EB810FEFD1306800F00700B84229
:100750000BD9306820F0070038433060306800F073
:100760000700B84201D00120E5E72878400705D509
:100770006068E96820F4E06008436060287800075A
:1007800006D56068296920F4605040EAC1006060C5
:1007900000F038F86168084AC1F30311515CC840A1
:1007A0000649086006480068FFF7F8FE0020C2E727
:1007B00000200240001002403618000814000020FB
:1007C0000C0000200448054900684968044AC1F348
:1007D0000221515CC8407047140000200010024004
:1007E000461800080448054900684968044AC1F3EE
:1007F000C221515CC8407047140000200010024024
:10080000461800080E4A51680E4801F00C03042BEC
:1008100011D0082B0FD10C48C1F38343C903C05C2E
:100820000AD55168084AC1F34041921E515C054AFD
:100830005043B0FBF1F07047044948437047000053
:100840000010024000127A002618000800093D003E
:100850002DE9F84F040070D02078C04DC00749D072
:100860006868C0F38100012807D06868C0F3810080
:10087000022809D16868C00306D52868800339D5E5
:1008800060680028E7D035E06068B0F5803F0BD0A5
:1008900010B1B0F5A02F11D0286820F48030286066
:1008A000286820F4802002E0286840F48030286026
:1008B000606890B1FFF752FE06460AE0286840F4EF
:1008C00080202860F0E700BFFFF748FE801B642807
:1008D00073D828688003F7D50CE0FFF73FFE064683
:1008E00005E000BFFFF73AFE801B6428F0D82868B7
:1008F0008003F7D420789A4E80074FF001094FF01B
:10090000000839D5686810F00C0F07D06868C0F38C
:100910008100022809D16868C00306D428688007CE
:1009200014D52069012808D110E02069B0B1C6F8BB
:100930000090FFF713FE074605E00AE1FFF70EFE01
:10094000C01B0228C4D828688007F7D528686169C9
:1009500020F0F80040EAC10028600DE0C6F80080F1
:10096000FFF7FCFD074604E0FFF7F8FDC01B022877
:1009700023D828688007F7D4207800072CD5794839
:10098000A169D9B1C0F80090FFF7E8FD074604E07F
:10099000FFF7E4FDC01B02280FD8686A8007F7D56F
:1009A00071484FF4FA510068B0FBF1F0009000BFBD
:1009B0000098411E0091FAD20EE080E0C0F800805D
:1009C000FFF7CCFD074604E0FFF7C8FDC01B022877
:1009D00075D8686A8007F7D42078400760D5E86941
:1009E0000027C00008D4E86940F08050E861E86959
:1009F000012700F0805000905C480168C90513D4BD
:100A00000168834641F480710160FFF7A7FD8246CB
:100A100006E000BFFFF7A2FDA0EB0A0064284ED855
:100A2000DBF80000C005F5D5E06801280AD008B160
:100A3000052813D0286A20F001002862286A20F0D7
:100A4000040002E0286A40F001002862E06841F2F8
:100A5000883B98B1FFF782FD82460BE0286A40F0A0
:100A600004002862EEE700BFFFF778FDA0EB0A0163
:100A700059455AD8286A8007F6D50CE0FFF76EFD75
:100A8000824605E0FFF76AFDA0EB0A0159454CD804
:100A9000286A8007F6D41FB1E86920F08050E86129
:100AA000E06988B36968C1F38101022944D0022852
:100AB000C6F8608004D0FFF751FD044638E034E00A
:100AC000FFF74CFD074604E0FFF748FDC01B022876
:100AD0002BD828688001F7D4206AB0F5803F05D173
:100AE0006868A16820F4003008436860D4E9080110
:100AF0000843696821F4741108436860C6F860907F
:100B0000FFF72CFD044606E025E000BFFFF726FDB9
:100B1000001B022809D828688001F7D51BE000BF18
:100B2000FFF71CFD001B022802D90320BDE8F88F47
:100B300028688001F4D40EE00128F7D06868226AA2
:100B400000F48031914204D1616A00F4701088424F
:100B500001D00120EAE70020E8E700000010024091
:100B60000000424280044242140000200070004015
:100B700010B5401EB0F1807F01D3012010BD4FF0B1
:100B8000E02460610F21601700F001FE0020A061E9
:100B900007202061002010BD7047704770B590F8A5
:100BA0003C20012A26D0012480F83C40022280F813
:100BB0003D2003685A689D6822F070060A68324337
:100BC0005A600D4B02689A4208D0B2F1804F05D0AE
:100BD0000A4B9A4202D00A4B9A4204D1496825F046
:100BE00080031943916080F83D40002180F83C105B
:100BF000084670BD022070BD002C0140000400407A
:100C00000008004010B5040003D094F83D0010B176
:100C100007E0012010BD002084F83C00204600F0D1
:100C20001FF8022084F83D00211D206800F018FC08
:100C3000012084F8460084F83E0084F83F0084F8E0
:100C4000400084F8410084F8420084F8430084F8AE
:100C5000440084F8450084F83D00002010BD0000E9
:100C600008B500680B49884212D10B48816941F4EC
:100C7000006181618069002200F4006000901146EB
:100C80001920FFF7D7FCBDE808401920FFF7C4BCC6
:100C900008BD0000002C01400010024090F83D10FB
:100CA000012901D001207047022180F83D10016820
:100CB000CA6842F00102CA6000680B49884208D045
:100CC000B0F1804F05D00949884202D008498842D6
:100CD00004D1816801F00701062903D0016841F0C1
:100CE0000101016000207047002C01400004004019
:100CF0000008004070B5044690F83C00002501282B
:100D000017D0012684F83C60022084F83D0020685A
:100D1000826822F0770222F47F42826008685028BD
:100D200038D00DDC20284FD005DC90B3102811D12D
:100D30004AE0022070BD302846D040280AD13BE06E
:100D400060282FD070280DD0B0F5805F03D0B0F5AB
:100D5000005F12D0012584F83D60002084F83C003B
:100D6000284670BDCB68D1E90121206800F0AEFBB8
:100D70002068816841F0770109E0CB68D1E9012161
:100D8000206800F0A3FB2068816841F48041816005
:100D9000E1E719E0CA684968206800F0A9FB502122
:100DA000206806E0CA684968206800F0B2FB60214C
:100DB000206800F095FBCEE7CA684968206800F01B
:100DC00097FB40212068F4E7226801461046F0E7CF
:100DD000704770B50446006801694FF00005C943CB
:100DE000890715D4C168C943890711D4E91E016177
:100DF00001202077206880698007204602D0FFF715
:100E0000E7FF04E000F098F8204600F096F8257718
:100E100020680169C943490717D4C168C943490714
:100E200013D46FF0040101610220207720688069EB
:100E300010F4407F204602D0FFF7CAFF04E000F024
:100E40007BF8204600F079F8257720680169C943CE
:100E5000090716D4C168C943090712D46FF0080105
:100E60000161042020772068C0698007204602D0F5
:100E7000FFF7AEFF04E000F05FF8204600F05DF8F9
:100E8000257720680169C943C90617D4C168C943D9
:100E9000C90613D46FF01001016108202077206883
:100EA000C06910F4407F204602D0FFF791FF04E0B4
:100EB00000F042F8204600F040F8257720680169EC
:100EC000C943C90708D1C168C943C90704D1891EEC
:100ED0000161204600F032F820680169C943090623
:100EE00009D4C168C943090605D46FF080010161C6
:100EF0002046FFF751FE20680169C943490609D41D
:100F0000C168C943490605D46FF04001016120461C
:100F100000F020F820680169C94389060BD4C16834
:100F2000C943890607D46FF0200101612046BDE85E
:100F30007040FFF732BE70BD70477047044881882B
:100F400011B94FF42F71818089B2491E8180704799
:100F5000000000207047704770470000F8B5016836
:100F600004460868CA684B6910F00F0F4FF000057F
:100F700059D003F0010602F49077374365D0C107DA
:100F800005D0D10503D5616C41F0010161644107D1
:100F900005D5D90703D0616C41F002016164810776
:100FA00005D5D90703D0616C41F0040161640107E4
:100FB00007D502F02001314303D0616C41F00801F4
:100FC0006164616C00293AD0800604D5900602D590
:100FD000204600F0DFFA20684069616CC0F38010A1
:100FE000090700D460B3204600F0ADFA20684069DC
:100FF000400621D52068143050E8001F21F0400140
:1010000040E80012002AF5D1E06BA8B16D494163B8
:10101000E06BFFF761F9002811D0E06B416B01B084
:10102000BDE8F040084783060FD593060DD520464E
:10103000BDE8F84000F0AEBA2046FFF78DFFF8BDDE
:101040002046FFF789FF6564F8BD266B2023012E3B
:101050007CD1C6067AD5D60678D50868486800904F
:1010600048694FF00206400640D5E16B08684068C9
:101070000004000CE8D0A28D8242E5D9E0858869A1
:1010800020282DD020680C3050E8001F21F48071FA
:1010900040E80012002AF5D12068143050E8001F03
:1010A00021F0010140E80012002AF5D12068143037
:1010B00050E8001F21F0400140E80012002AF5D15D
:1010C00084F84230256320680C3050E8001F21F07E
:1010D000100140E80012002AF5D1E06BFFF7D9F8C3
:1010E0006663A08DE18D401A81B22AE0A08DE18D6A
:1010F000401A81B2E08D0028A6D00029A4D0226831
:101100000C3252E8000F20F4907042E80007002FE4
:10111000F5D12068143050E8002F22F0010240E899
:101120000027002FF5D184F84230256320680C3069
:1011300050E8002F22F0100240E80023002BF5D1E8
:1011400066632046FFF707FFF8BDFFE705062BD5CE
:10115000150629D594F841002128F5D1A068B0F5ED
:10116000805F01D12069B0B1206A411C21622168F1
:1011700000784860E08C401E0004000CE084E3D15D
:101180002068C16821F08001C1602068C16841F019
:101190004001C160D8E7206A0088C0F308004860B9
:1011A000206A801C2062E5E74006CDD55006CBD5ED
:1011B000CA68204622F04002CA6084F8413000F03C
:1011C0009DF8C1E73715000870B5040004D094F805
:1011D0004100002510B106E0012070BD84F84050A8
:1011E000204600F023F8242084F841002068C168DC
:1011F00021F40051C160204600F02EFA20680169F8
:1012000021F4904101612068416921F02A01416186
:101210002068C16841F40051C1606564202084F8F1
:10122000410084F842006563002070BD30B585B090
:1012300000240094019402940394006818498842A1
:101240002CD11848C16941F48021C161C16901F400
:1012500080210491816941F0080181618069124D0A
:1012600000F0080004904FF480600090022001908C
:101270000320039069462846FFF77AF8E814CDE981
:101280000004694628460294FFF772F800221146CE
:101290002720FFF7CFF92720FFF7BEF905B030BDB3
:1012A0000048004000100240000C014090F842301D
:1012B000202B01D00220704721B11AB10023036313
:1012C00000F026BA01207047704790F84130202B7B
:1012D00001D00220704779B172B101628284C28468
:1012E00000214164212180F841100068C16841F06B
:1012F0008001C16000207047012070477047FEE701
:1013000070B586B000241C480094019402940394A4
:10131000816941F010018161816901F0100104913E
:10132000816941F020018161816901F0200104910E
:10133000816941F008018161816901F0080104912E
:10134000816941F00401816180690C4E00F0040064
:101350004FF400550490002229463046FFF7F8F874
:1013600001200095CDE90104022003906946304632
:10137000FEF7FEFF06B070BD0010024000100140F5
:1013800010B586B000241748009401940294039489
:10139000049413490594016041F61F41C0E901140A
:1013A0006321C0E9031444618461FFF72BFC08B199
:1013B00072B6FEE74FF48050009069460948FFF787
:1013C00099FC08B172B6FEE7049404A90548059497
:1013D000FFF7E4FB002801D072B6FEE706B010BDAF
:1013E000002C014024000020FEE7FEE77047704714
:1013F000FFF7BAB830B58FB028216846FEF7E4FE93
:1014000014210AA8FEF7E0FE01210804CDE900102E
:101410000024029402250491CDE907504FF4E01016
:1014200009906846FFF714FA08B172B6FEE70F207C
:10143000CDE90A054FF48060CDE90C4002210AA8ED
:101440000E94FFF729F9002801D072B6FEE70FB01D
:1014500030BD70470148FFF7BCBC000024000020ED
:10146000F0B50268164B174C174D4FF08047984265
:1014700005D0B84203D0A04201D0A84203D122F047
:1014800070064A683243984205D0B84203D0A04261
:1014900001D0A84203D122F44074CA6822434C69A7
:1014A00022F08002224302608A68C2620A68826275
:1014B000984201D10969016301214161F0BD000039
:1014C000002C0140000400400008004010B5846872
:1014D00042EA032224F47F440A432243826010BD7F
:1014E000826822F070020A4342F00701816070476F
:1014F00010B5036A046A24F001040462846924F0CC
:10150000F00444EA021423F00A020A4384610262EE
:1015100010BD10B5036A046A24F0100404628469E3
:1015200023F0A00324F4704444EA023243EA011198
:101530008261016210BD10B5406A0021C185C1847D
:10154000FFF70AFD10BD01680C3151E8002F22F4AD
:10155000907241E80023002BF5D10168143151E865
:10156000002F22F0010241E80023002BF5D1016B8E
:10157000012909D101680C3151E8002F22F0100235
:1015800041E80023002BF5D1202180F842100021F2
:101590000163704708B590F84210222901D002205B
:1015A00008BD82684FF480539A4201D1016921B18C
:1015B000816A9A421BD04AB10AE00268816A526885
:1015C000C2F308020A80816A891C08E0026972B1CC
:1015D0000268526802F07F020A70816A491C8162C7
:1015E000C18D491E0904090CC18503D01BE00268A6
:1015F0005268F1E70168CA6822F02002CA600168F7
:10160000CA6822F48072CA6001684A6922F0010245
:101610004A61202180F8421000214163026B012AB7
:1016200003D0FFF751FE002008BD016301680C31B3
:1016300051E8002F22F0100241E80023002BF5D1E1
:1016400001680A68D20602D50A6849680091818D4E
:10165000FFF781FCE7E7000070B504460068016908
:10166000E26821F44051114301612169A0680843F7
:10167000616908432168CA6841F20C639A430243D6
:10168000CA6020684169A26921F440711143416137
:101690001E492068884202D1FFF7A4F801E0FFF755
:1016A00091F800EBC00101EB00126068642180003A
:1016B000B2FBF0F3B3FBF1F36FF018067343B2FB28
:1016C000F0F5B2FBF0F605EB8305322303EB0515CD
:1016D000B5FBF1F5B6FBF1F605F0F00505EB0615E7
:1016E000B2FBF0F6B2FBF0F0B0FBF1F06FF01802D5
:1016F000504306EB800003EB0010B0FBF1F02168D3
:1017000000F00F002844886070BD000000380140E0
:1017100081628285C28500214164222180F84210C5
:10172000016921B10168CA6842F48072CA60016827
:101730004A6942F001024A610068C16841F0200133
:10174000C1600020704700000148FFF707BC00009F
:101750006C00002070B50B4C0D4638B10A490A22C6
:1017600001F15400FFF7A2FD0A206070002D07D0A0
:101770000549627801F15400FFF7A7FD0020607071
:1017800070BD00000000002018000020FEE70907DF
:10179000090E002804DB00F1E02080F800147047F7
:1017A00000F00F0000F1E02080F8141D70470000E9
:1017B000FEF7E2FEFFF71EFEFFF7A2FD17481649EF
:1017C000002501604FF41651C0E901150C21C560D8
:1017D000C0E904518561C561FFF7F6FC08B172B636
:1017E000FEE7FFF7CDFD0D484838FFF757FA0C4CE0
:1017F0000126A08820B921780A2901D2A67001E02B
:10180000A57018B9607808B1E67000E0E570E1787D
:10181000A078FFF79FFFECE7004800406C00002035
:1018200000000020010202030405060708090A0B54
:101830000C0D0E0F1010000000000000000001024F
:101840000304060708090000000001020304000069
:10185000701800080000002018000000280100088F
:101860008818000818000020000700004401000844
:1018700000000000BC020000010000001000000099
:08188000000000000024F40048
:04000005080000ED02
:00000001FF
